:020000040800F2
:100000000004002047010008350500082D05000800
:100010003105000899010008ED0A00080000000001
:10002000000000000000000000000000C106000801
:100030001504000800000000A9050008B107000829
:1000400067010008670100086701000867010008F0
:1000500067010008670100086701000867010008E0
:1000600067010008670100086701000867010008D0
:1000700067010008670100086701000867010008C0
:1000800067010008670100086701000867010008B0
:1000900067010008670100086701000867010008A0
:1000A0006701000867010008670100086701000890
:1000B0006701000867010008670100086701000880
:1000C0006701000867010008670100086701000870
:1000D00067010008050800086701000867010008BB
:1000E0006701000867010008670100086701000850
:1000F0006701000867010008670100086701000840
:10010000670100086701000867010008670100082F
:10011000670100086701000867010008670100081F
:10012000670100086701000867010008670100080F
:10013000DFF80CD000F01EF800480047110B000853
:1001400000040020704708488047084981F3088868
:1001500007480047FEE7FEE7FEE7FEE7FEE7FEE7AB
:10016000FEE7FEE7FEE7FEE7450100080004002089
:1001700031010008064C074D06E0E06840F001033D
:1001800094E8070098471034AC42F6D3FFF7D4FF49
:10019000D00B0008F00B000800BFFEE770B5044666
:1001A0000E4615460021204600F068F8E6606560BE
:1001B0000121204600F062F870BD000010B58CB03F
:1001C00004460CB90CB010BD0121084600F0EEF950
:1001D000012C01D0032C07D101224021234800F03B
:1001E000DFFB234800F056F8022C01D0032C08D185
:1001F000012280211D4800F0D3FB1D48143800F077
:1002000049F8002005908020069000200790089073
:100210000B901648001D019040140A90012C01D04B
:10022000032C0FD168200490124802900020039004
:100230002020099001A90E4800F0CEF801210C48B9
:1002400000F01CF8022C01D0032C0CD140200490AB
:1002500009480290102003900020099001A9044849
:10026000143800F0B9F800BFACE7000000380140D6
:100270005800024020000020C001002021B1026887
:1002800042F00102026003E0026822F00102026013
:1002900070470000016821F0010101600021016048
:1002A00041608160C160484A811A90425BD012DC93
:1002B000464AA0EB020190423AD007DC444901448F
:1002C000D9B1142922D028297AD128E0142938D08C
:1002D000282975D13EE0B1F56C7F5BD006DCB1F525
:1002E000627F49D0B1F5677F6AD14CE0B1F5717F8B
:1002F00057D0B1F5767F63D15BE034494439496822
:1003000041F00F01314A443A51605AE02F494439D3
:10031000496841F0F0012D4A443A516051E02B49BF
:100320004439496841F47061284A443A516048E0D0
:1003300026494439496841F47041244A443A51609D
:100340003FE022494439496841F470211F4A443A48
:10035000516036E01D494439496841F470011B4A37
:10036000443A51602DE019494439496841F07061BF
:10037000164A443A516024E01649096841F00F01D9
:10038000144A11601DE01349096841F0F001114A57
:10039000116016E00F49096841F470610D4A11605F
:1003A0000FE00C49096841F470410A4A116008E005
:1003B00006E00849096841F47021064A116000E02E
:1003C00000BF00BF704700008000024044000240B0
:1003D000F8FFFDBF0404024010B50022026847F692
:1003E000F0739A430C6A8B6823430C6923434C696E
:1003F00023438C692343CC6923434C6A23438C6A8F
:1004000023431A430260CB6843600B6883604B68E8
:10041000C36010BD70472DE9F0410246002500265B
:10042000002000230024002791F803C00CF00F05E2
:1004300091F803C00CF0100CBCF1000F03D091F840
:1004400002C04CEA050591F800C0BCF1000F31D0A4
:10045000146800202BE04FF0010C0CFA00F3B1F807
:1004600000C00CEA03069E4220D183004FF00F0C1F
:100470000CFA03F7BC4305FA03FC4CEA040491F8B8
:1004800003C0BCF1280F06D14FF0010C0CFA00FCA0
:10049000C2F814C00AE091F803C0BCF1480F05D1BE
:1004A0004FF0010C0CFA00FCC2F810C0401C0828E8
:1004B000D1D31460B1F800C0BCF1FF0F34DD546833
:1004C00000202EE000F1080C4FF0010808FA0CF3B0
:1004D000B1F800C00CEA03069E4221D183004FF020
:1004E0000F0C0CFA03F7BC4305FA03FC4CEA0404B6
:1004F00091F803C0BCF1280F05D100F1080C08FAEF
:100500000CF8C2F8148091F803C0BCF1480F07D171
:1005100000F1080C4FF0010808FA0CF8C2F810803E
:10052000401C0828CED35460BDE8F08100BFFEE730
:1005300000BFFEE77047000070B5002100230F22C6
:10054000C47804B3154C246804F4E064C4F5E06492
:10055000210AC1F10403CA40447804FA03F1847803
:100560001440214309010E4C0678A155047804F08B
:100570001F050124AC4005786D11AD0005F1E025A3
:10058000C5F8004109E0047804F01F050124AC40DF
:10059000044D0678761145F8264070BD0CED00E05C
:1005A00000E400E080E100E07047000029B1064A65
:1005B00052690243044B5A6104E0034A5269824380
:1005C000014B5A61704700000010024029B1064AF1
:1005D00092690243044B9A6104E0034A92698243A0
:1005E000014B9A61704700000010024030B50021B5
:1005F0000022002400232D4D6D6805F00C0121B16F
:10060000042905D0082923D105E0294D056022E001
:10061000274D05601FE0254D6D6805F47012022519
:1006200005EB9242214D6D6805F480341CB9214DD3
:10063000554305600BE01D4D6D6805F400351DB197
:100640001C4D5543056002E0194D5543056002E01D
:10065000174D056000BF00BF144D6D6805F0F00137
:100660000909154D6B5C0568DD4045600F4D6D68EF
:1006700005F4E061090A104D6B5C4568DD4085605A
:100680000A4D6D6805F46051C90A0B4D6B5C4568F5
:10069000DD40C560054D6D6805F44041890B074D8F
:1006A0006B5CC568B5FBF3F5056130BD0010024019
:1006B00000127A0000093D000C0000201C00002000
:1006C000704710B500F002F810BD00000CB5002016
:1006D000019000903448006840F48030324908604E
:1006E00000BF3148006800F4003000900198401CC1
:1006F0000190009818B90198B0F5A06FF1D12A487F
:10070000006800F4003010B10120009001E00020EA
:1007100000900098012844D12448006840F010005F
:10072000224908600846006820F003000860084677
:10073000006840F0020008601B4840681A494860A1
:100740000846406848600846406840F48060486059
:100750000846406820F47C1048600846406840F431
:10076000E81048600846006840F08070086000BFEC
:100770000D48006800F000700028F9D00A48406871
:1007800020F00300084948600846406840F0020035
:10079000486000BF0448406800F00C000828F9D108
:1007A00001E000BFFEE70CBD001002400020024047
:1007B0007047000010B51048006840F001000E4975
:1007C0000860084640680D4908400B4948600846E3
:1007D00000680B490840084908600846006820F492
:1007E000802008600846406820F4FE004860002031
:1007F0008860FFF766FF10BD001002400000FFF8A0
:10080000FFFFF6FE70B540F22441314800F0DAF8FF
:1008100000285BD02E480088C5B22D48001D0088F6
:10082000C5B22C4890F90800002820DC2A4840690D
:10083000284991F9081001EB810202EBC101274A16
:1008400002EBC10181F867000120224908720846C5
:1008500090F9080000EB800202EBC0001F4A02EB97
:10086000C00168221C485830FFF798FC2EE0002495
:1008700029E0184890F90800A04223D116484069A1
:10088000144991F9081001EB810202EBC101134AEE
:1008900002EBC10181F867000E48007A401C40B2AB
:1008A0000C490872084690F9080000EB800202EB40
:1008B000C0000A4A02EBC001682207485830FFF71F
:1008C0006DFC02E0641C042CD3DB00BF70BD000093
:1008D00000380140000000200000024020000020FD
:1008E00010B586B00446012144F20400FFF76EFE05
:1008F00018208DF8170003208DF816004FF40070B3
:10090000ADF8140005A91E48FFF785FD04208DF8F9
:1009100017000002ADF8140005A91948FFF77BFD88
:1009200001940020ADF80800ADF80A00ADF80C0005
:100930000C20ADF80E000020ADF8100001A9114800
:1009400000F086F825208DF8000003208DF80100C6
:1009500001208DF802008DF803006846FFF7ECFDDA
:10096000012240F22441074800F052F801210548D5
:1009700000F00AF80320FFF721FC06B010BD0000CC
:10098000000801400038014021B1828942F4005240
:10099000828104E082894DF6FF731A40828170479C
:1009A0001AB1838A0B43838202E0838A8B4383825A
:1009B00070470246002013880B400BB1012000E075
:1009C0000020704770B502460B4600240021002528
:1009D0000020C3F3421503F01F01012606FA01F1BE
:1009E000012D02D19689314006E0022D02D1168AEE
:1009F000314001E0968A31401C12012606FA04F4C7
:100A00001688344011B10CB1012000E0002070BD07
:100A1000F0B5034600240026002500201846C1F347
:100A2000421401F01F06012707FA06F5012C01D137
:100A30000C3004E0022C01D1103000E014301AB167
:100A400007682F43076002E00768AF430760F0BD07
:100A50002DE9F04786B005460E460024A24600BFA9
:100A600000BF00272F462C8A4CF6FF700440F08808
:100A700004432C82AC894EF6F3100440B0883189CF
:100A80000843718908430443AC81AC8A4FF6FF40A8
:100A90000440B0890443AC8201A8FFF7A7FD1248C7
:100AA000874202D1DDF810A001E0DDF80CA00AEBCE
:100AB000CA0000EB0A1031688900B0FBF1F864202D
:100AC000B8FBF0F004012009642101FB10893220F9
:100AD00000EB0910B0FBF1F000F00F0004432C8193
:100AE00006B0BDE8F08700000038014000BFFEE717
:100AF00002E008C8121F08C1002AFAD170477047E7
:100B0000002001E001C1121F002AFBD17047000044
:100B10002DE9F041FFF74EFE4FF4E130FFF7E0FE24
:100B20000320FFF74BFB012400250026002740E0AF
:100B300074B101212348FFF7A1FB68222249214813
:100B4000FFF72CFB0020074606460446012530E04F
:100B50007DB101211B48FFF791FB68221A496831DA
:100B60001848FFF71BFB00200546074604460126F0
:100B70001FE07EB101211348FFF780FB6822124974
:100B8000D0311048FFF70AFB002006460546044610
:100B900001270EE001210B48FFF770FB68220A498C
:100BA00068390848FFF7FAFA002007460646054666
:100BB000012440210548FFF7FCFE0028B8D00020A2
:100BC000BDE8F08144000240880000200038014068
:100BD000F00B00080000002020000000F00A0008D0
:100BE000100C000820000020E0030000000B0008AB
:100BF00020000020C00100200000000000000000D4
:100C0000010203040102030406070809020406089E
:0400000508000131BD
:00000001FF
