:020000040800F2
:100000000004002047010008CD030008DD020008BD
:10001000C903000899010008F90700080000000062
:1000200000000000000000000000000015050008AE
:100030009D01000800000000CF03000859060008D9
:1000400067010008670100086701000867010008F0
:1000500067010008670100086701000867010008E0
:1000600067010008670100086701000867010008D0
:1000700067010008670100086701000867010008C0
:1000800067010008670100086701000867010008B0
:1000900067010008670100086701000867010008A0
:1000A0006701000867010008670100086701000890
:1000B0006701000867010008670100086701000880
:1000C0006701000867010008670100086701000870
:1000D0006701000867010008670100086701000860
:1000E0006701000867010008670100086701000850
:1000F0006701000867010008670100086701000840
:10010000670100086701000867010008670100082F
:10011000670100086701000867010008670100081F
:10012000670100086701000867010008670100080F
:10013000DFF80CD000F01EF80048004771090008F5
:1001400018020020704708488047084981F3088852
:1001500007480047FEE7FEE7FEE7FEE7FEE7FEE7AB
:10016000FEE7FEE7FEE7FEE7450100081802002073
:1001700031010008064C074D06E0E06840F001033D
:1001800094E8070098471034AC42F6D3FFF7D4FF49
:10019000300A0008500A000800BFFEE7704701B5AA
:1001A00002E00098401E009000980028F9D108BD98
:1001B0002DE9F041024600250026002000230024FE
:1001C000002791F803C00CF00F0591F803C00CF064
:1001D000100CBCF1000F03D091F802C04CEA0505E9
:1001E00091F800C0BCF1000F31D0146800202BE062
:1001F0004FF0010C0CFA00F3B1F800C00CEA030652
:100200009E4220D183004FF00F0C0CFA03F7BC4341
:1002100005FA03FC4CEA040491F803C0BCF1280F72
:1002200006D14FF0010C0CFA00FCC2F814C00AE031
:1002300091F803C0BCF1480F05D14FF0010C0CFA46
:1002400000FCC2F810C0401C0828D1D31460B1F8DB
:1002500000C0BCF1FF0F34DD546800202EE000F137
:10026000080C4FF0010808FA0CF3B1F800C00CEAD2
:1002700003069E4221D183004FF00F0C0CFA03F7C6
:10028000BC4305FA03FC4CEA040491F803C0BCF13A
:10029000280F05D100F1080C08FA0CF8C2F81480F8
:1002A00091F803C0BCF1480F07D100F1080C4FF0E2
:1002B000010808FA0CF8C2F81080401C0828CED3B8
:1002C0005460BDE8F0810246002093680B400BB1FA
:1002D000012000E0002070470161704700BFFEE789
:1002E0004CF6CC40014908607047000000300040E7
:1002F0004AF6AA200149086070470000003000401B
:1003000001494860704700000030004001498860A2
:10031000704700000030004001490860704700004D
:100320000030004008B50121042000F051F80121FF
:10033000082000F04DF80120ADF800008DF8020013
:1003400048208DF8030069460148FFF731FF08BDDA
:100350000008014070B504460D4629462046FFF7C7
:10036000B2FF98B94CF25030FFF719FF29462046EA
:10037000FFF7A9FF40B900BF29462046FFF7A3FFBA
:100380000028F9D0002070BD0120FCE70120FAE729
:1003900008B50121102000F01BF84FF40050ADF813
:1003A000000010208DF8030003208DF8020069463C
:1003B0000448FFF7FDFE4FF400510248FFF78CFFA1
:1003C00008BD00000010014000BFFEE77047704705
:1003D00029B1064A92690243044B9A6104E0034A38
:1003E00092698243014B9A617047000000100240FD
:1003F0000348406A40F0807001494862704700003D
:100400000010024030B500210022002400232D4DB1
:100410006D6805F00C0121B1042905D0082923D10C
:1004200005E0294D056022E0274D05601FE0254DC0
:100430006D6805F47012022505EB9242214D6D683E
:1004400005F480341CB9214D554305600BE01D4D6A
:100450006D6805F400351DB11C4D5543056002E083
:10046000194D5543056002E0174D056000BF00BF00
:10047000144D6D6805F0F0010909154D6B5C0568B8
:10048000DD4045600F4D6D6805F4E061090A104DCF
:100490006B5C4568DD4085600A4D6D6805F4605110
:1004A000C90A0B4D6B5C4568DD40C560054D6D6844
:1004B00005F44041890B074D6B5CC568B5FBF3F54E
:1004C000056130BD0010024000127A0000093D00B5
:1004D000000000201000002010B50146002200237B
:1004E00000204A11012A02D1094C236806E0022AA1
:1004F00002D1074C236A01E0054C636A01F01F0238
:10050000012494401C400CB1012000E0002010BDEB
:1005100000100240704710B500F002F810BD000056
:100520000CB50020019000903448006840F4803001
:100530003249086000BF3148006800F40030009084
:100540000198401C0190009818B90198B0F5A06F6F
:10055000F1D12A48006800F4003010B10120009069
:1005600001E0002000900098012844D12448006850
:1005700040F01000224908600846006820F003009F
:1005800008600846006840F0020008601B484068A8
:100590001A4948600846406848600846406840F488
:1005A000806048600846406820F47C104860084637
:1005B000406840F4E81048600846006840F08070E9
:1005C000086000BF0D48006800F000700028F9D0F6
:1005D0000A48406820F0030008494860084640681F
:1005E00040F00200486000BF0448406800F00C0082
:1005F0000828F9D101E000BFFEE70CBD0010024061
:100600000020024030B50146B1F1807F01D30120C6
:1006100030BD21F07F40401E4FF0E0225061501766
:100620000F22002807DA13071D0E094B00F00F04F4
:10063000241F1D5503E013071C0E064B1C5400BF5E
:1006400000204FF0E0229061072010610020DFE7DA
:1006500018ED00E000E400E07047000010B510481D
:10066000006840F001000E490860084640680D49E6
:1006700008400B494860084600680B490840084993
:1006800008600846006820F480200860084640683A
:1006900020F4FE00486000208860FFF73CFF10BD9A
:1006A000001002400000FFF8FFFFF6FE00B585B025
:1006B000012144F20400FFF78BFE4FF40070ADF807
:1006C000100018208DF8130003208DF8120004A9E3
:1006D0001348FFF76DFD4FF48060ADF81000042063
:1006E0008DF8130004A90E48FFF762FD4FF4E130C6
:1006F00000900020ADF80400ADF80600ADF8080049
:10070000ADF80C000C20ADF80A006946054800F071
:1007100021F80121034800F007F805B000BD0000F2
:10072000000801400038014021B1828942F40052A2
:10073000828104E082894DF6FF731A4082817047FE
:100740000246002013880B400BB1012000E000207E
:10075000704700002DE9F04786B005460E4600249C
:10076000A24600BF00BF00272F462C8A4CF6FF7020
:100770000440F08804432C82AC894EF6F310044008
:10078000B08831890843718908430443AC81AC8A3D
:100790004FF6FF400440B0890443AC8201A8FFF744
:1007A00031FE1248874202D1DDF810A001E0DDF8E9
:1007B0000CA00AEBCA0000EB0A1031688900B0FBFC
:1007C000F1F86420B8FBF0F004012009642101FB7A
:1007D0001089322000EB0910B0FBF1F000F00F009F
:1007E00004432C8106B0BDE8F087000000380140CA
:1007F000C1F308028280704700BFFEE70FB4054BCB
:1008000010B503A9044A029800F017F810BC5DF86F
:1008100014FB00004D0900081400002002E008C885
:10082000121F08C1002AFAD170477047002001E06A
:1008300001C1121F002AFBD170472DE9F84F9946DC
:10084000924688460546002706E025280AD05146EC
:100850004A4690476D1C7F1C28780028F5D1384601
:10086000BDE8F88F002315F8011F18462E2915D171
:1008700015F8011F04232A290DD06FF02F022978C3
:10088000A1F13004092C09D800EB800002EB4000F4
:1008900008446D1CF3E758F8040B6D1C2A78002AF5
:1008A000DDD0632A07D0732A0FD0104651464A463E
:1008B00090477F1C2AE018F8042B8DF800200021B7
:1008C0008DF801106E46012103E058F8046B4FF0DB
:1008D000FF315A074FF0000401D409E0641C844240
:1008E0000BDA8C42FADB325D002AF7D105E0641C9A
:1008F0008C42FCDB305D0028F9D1274404E016F877
:10090000010B51464A469047641EF8D26D1CA3E77E
:1009100070B504460C48FFF775FE002508E000BFDF
:100920004FF0E020006900F480300028F8D06D1C02
:10093000A542F4D34FF0E020006920F002004FF010
:10094000E021086170BD00004019010070B5044647
:100950000D46E1B20548FFF74BFF00BF8021034879
:10096000FFF7EEFE0028F9D0204670BD00380140A8
:10097000FFF774FEFFF70CFDFFF7D4FCFFF796FEC0
:100980001DA0FFF73BFF7D20FFF7A6FD012809D141
:100990001CA0FFF733FF4FF4FA70FFF7B9FFFFF722
:1009A00027FD08E01DA0FFF729FF4FF4FA70FFF7BD
:1009B000AFFFFFF71DFD45F25550FFF7ADFC0220DC
:1009C000FFF79EFC40F6C310FFF7A0FCFFF790FC7A
:1009D000FFF786FC0FE001211248FFF7BBFCFFF791
:1009E00087FC4FF41670FFF793FF0FA0FFF706FF89
:1009F000C820FFF78DFFEEE7BFB4C3C5B9B7B2E2B9
:100A0000CAD40A0049574447525354B8B4CEBBA382
:100A1000ACCEB9B9B7CAA7B0DC200A0052535420F3
:100A20000A0000000008014046656564200A0000D5
:100A3000500A000800000020180000001C080008F0
:100A4000680A000818000020000200002C080008B6
:100A50000000000001020304010203040607080964
:080A600002040608000000007A
:0400000508000131BD
:00000001FF
