:020000040800F2
:10000000000400204701000811030008CF02000887
:100010000D030008990100087904000800000000A1
:100020000000000000000000000000003503000890
:100030009D010008000000001303000825040008CB
:1000400067010008670100086701000867010008F0
:1000500067010008670100086701000867010008E0
:1000600067010008670100086701000867010008D0
:1000700067010008670100086701000867010008C0
:1000800067010008670100086701000867010008B0
:1000900067010008670100086701000867010008A0
:1000A0006701000867010008670100086701000890
:1000B0006701000867010008670100086701000880
:1000C0006701000867010008670100086701000870
:1000D0006701000867010008670100086701000860
:1000E0006701000867010008670100086701000850
:1000F0006701000867010008670100086701000840
:10010000670100086701000867010008670100082F
:10011000670100086701000867010008670100081F
:10012000670100086701000867010008670100080F
:10013000DFF80CD000F01EF8004800479D040008CE
:1001400000020020704708488047084981F308886A
:1001500007480047FEE7FEE7FEE7FEE7FEE7FEE7AB
:10016000FEE7FEE7FEE7FEE745010008000200208B
:1001700031010008064C074D06E0E06840F001033D
:1001800094E8070098471034AC42F6D3FFF7D4FF49
:10019000D0040008E004000800BFFEE7704701B586
:1001A00002E00098401E009000980028F9D108BD98
:1001B0002DE9F041024600250026002000230024FE
:1001C000002791F803C00CF00F0591F803C00CF064
:1001D000100CBCF1000F03D091F802C04CEA0505E9
:1001E00091F800C0BCF1000F31D0146800202BE062
:1001F0004FF0010C0CFA00F3B1F800C00CEA030652
:100200009E4220D183004FF00F0C0CFA03F7BC4341
:1002100005FA03FC4CEA040491F803C0BCF1280F72
:1002200006D14FF0010C0CFA00FCC2F814C00AE031
:1002300091F803C0BCF1480F05D14FF0010C0CFA46
:1002400000FCC2F810C0401C0828D1D31460B1F8DB
:1002500000C0BCF1FF0F34DD546800202EE000F137
:10026000080C4FF0010808FA0CF3B1F800C00CEAD2
:1002700003069E4221D183004FF00F0C0CFA03F7C6
:10028000BC4305FA03FC4CEA040491F803C0BCF13A
:10029000280F05D100F1080C08FA0CF8C2F81480F8
:1002A00091F803C0BCF1480F07D100F1080C4FF0E2
:1002B000010808FA0CF8C2F81080401C0828CED3B8
:1002C0005460BDE8F081416170470161704700BF33
:1002D000FEE7000008B50121102000F01BF84FF4E4
:1002E0000050ADF8000010208DF8030003208DF8B9
:1002F000020069460448FFF75BFF4FF400510248D3
:10030000FFF7E3FF08BD00000010014000BFFEE75B
:100310007047704729B1064A92690243044B9A61BB
:1003200004E0034A92698243014B9A6170470000DE
:1003300000100240704710B500F002F810BD000038
:100340000CB50020019000903448006840F48030E3
:100350003249086000BF3148006800F40030009066
:100360000198401C0190009818B90198B0F5A06F51
:10037000F1D12A48006800F4003010B1012000904B
:1003800001E0002000900098012844D12448006832
:1003900040F01000224908600846006820F0030081
:1003A00008600846006840F0020008601B4840688A
:1003B0001A4948600846406848600846406840F46A
:1003C000806048600846406820F47C104860084619
:1003D000406840F4E81048600846006840F08070CB
:1003E000086000BF0D48006800F000700028F9D0D8
:1003F0000A48406820F00300084948600846406801
:1004000040F00200486000BF0448406800F00C0063
:100410000828F9D101E000BFFEE70CBD0010024042
:10042000002002407047000010B51048006840F0FE
:1004300001000E490860084640680D4908400B4914
:100440004860084600680B490840084908600846AB
:10045000006820F4802008600846406820F4FE0010
:10046000486000208860FFF766FF10BD0010024062
:100470000000FFF8FFFFF6FE00BFFEE702E008C83D
:10048000121F08C1002AFAD170477047002001E00E
:1004900001C1121F002AFBD170470000FFF7C4FF03
:1004A000FFF718FF11E04FF400510848FFF70BFF6A
:1004B0004FF48010FFF773FE4FF400510348FFF72D
:1004C00004FF4FF48010FFF76AFEECE700100140D4
:1004D000E004000800000020000200008C04000876
:0400000508000131BD
:00000001FF
