:020000040800F2
:100000000004002047010008BD020008B5020008F6
:10001000B902000899010008250600080000000048
:10002000000000000000000000000000A503000820
:100030009D0100080000000061030008950400080D
:1000400067010008670100086701000867010008F0
:1000500067010008670100086701000867010008E0
:1000600067010008670100086701000867010008D0
:1000700067010008670100086701000867010008C0
:1000800067010008670100086701000867010008B0
:1000900067010008670100086701000867010008A0
:1000A0006701000867010008670100086701000890
:1000B000E9040008670100086701000867010008FB
:1000C0006701000867010008670100086701000870
:1000D0006701000867010008670100086701000860
:1000E0006701000867010008670100086701000850
:1000F0006701000867010008670100086701000840
:10010000670100086701000867010008670100082F
:10011000670100086701000867010008670100081F
:10012000670100086701000867010008670100080F
:10013000DFF80CD000F01EF8004800474906000820
:1001400008020020704708488047084981F3088862
:1001500007480047FEE7FEE7FEE7FEE7FEE7FEE7AB
:10016000FEE7FEE7FEE7FEE7450100080802002083
:1001700031010008064C074D06E0E06840F001033D
:1001800094E8070098471034AC42F6D3FFF7D4FF49
:100190008C060008AC06000800BFFEE770472DE99A
:1001A000F0410246002500260020002300240027FD
:1001B00091F803C00CF00F0591F803C00CF0100C7F
:1001C000BCF1000F03D091F802C04CEA050591F88C
:1001D00000C0BCF1000F31D0146800202BE04FF0BC
:1001E000010C0CFA00F3B1F800C00CEA03069E42C1
:1001F00020D183004FF00F0C0CFA03F7BC4305FA33
:1002000003FC4CEA040491F803C0BCF1280F06D1AA
:100210004FF0010C0CFA00FCC2F814C00AE091F88F
:1002200003C0BCF1480F05D14FF0010C0CFA00FCE3
:10023000C2F810C0401C0828D1D31460B1F800C027
:10024000BCF1FF0F34DD546800202EE000F1080CF3
:100250004FF0010808FA0CF3B1F800C00CEA0306ED
:100260009E4221D183004FF00F0C0CFA03F7BC43E0
:1002700005FA03FC4CEA040491F803C0BCF1280F12
:1002800005D100F1080C08FA0CF8C2F8148091F8B6
:1002900003C0BCF1480F07D100F1080C4FF0010872
:1002A00008FA0CF8C2F81080401C0828CED354601D
:1002B000BDE8F08100BFFEE700BFFEE77047000029
:1002C00000B589B00121084600F04CF80121042056
:1002D00000F058F80120ADF8200018208DF8230018
:1002E00003208DF8220008A91848FFF758FF4FF0A7
:1002F000804000F02BF90020ADF81A006320ADF823
:10030000180040F2CF20ADF8140000208DF81C003A
:1003100005A94FF0804000F067F901A800F058F9F6
:100320006020ADF804000020ADF80C000420ADF80A
:1003300006003220ADF80A0001A9400700F00CF9D0
:100340000121880700F0E5F809B000BD0008014070
:1003500010B5044621464FF0804000F043F910BD2F
:100360007047000029B1064AD2690243044BDA61A2
:1003700004E0034AD2698243014BDA61704700000E
:100380000010024029B1064A92690243044B9A6167
:1003900004E0034A92698243014B9A61704700006E
:1003A00000100240704710B500F002F810BD0000C8
:1003B0000CB50020019000903448006840F4803073
:1003C0003249086000BF3148006800F400300090F6
:1003D0000198401C0190009818B90198B0F5A06FE1
:1003E000F1D12A48006800F4003010B101200090DB
:1003F00001E0002000900098012844D124480068C2
:1004000040F01000224908600846006820F0030010
:1004100008600846006840F0020008601B48406819
:100420001A4948600846406848600846406840F4F9
:10043000806048600846406820F47C1048600846A8
:10044000406840F4E81048600846006840F080705A
:10045000086000BF0D48006800F000700028F9D067
:100460000A48406820F00300084948600846406890
:1004700040F00200486000BF0448406800F00C00F3
:100480000828F9D101E000BFFEE70CBD00100240D2
:10049000002002407047000010B51048006840F08E
:1004A00001000E490860084640680D4908400B49A4
:1004B0004860084600680B4908400849086008463B
:1004C000006820F4802008600846406820F4FE00A0
:1004D000486000208860FFF766FF10BD00100240F2
:1004E0000000FFF8FFFFF6FE10B50121880700F0BD
:1004F0001CF840B104480088401C034908800121D1
:10050000880700F003F810BD00000020CA430282F3
:10051000704721B1028842F00102028004E00288A3
:1005200040F2FE331A400280704730B50246002088
:1005300000230024158A05EA0103958905EA0104D0
:1005400013B10CB1012000E0002030BD01894FF64D
:10055000F87211400181704770B500240022002319
:10056000058C4FF6FE7635400584028C8388048B1B
:100570004FF68F752C400D882C43751E2A400D892F
:100580002A434D882A43CD8885860F4DA84202D044
:100590000E4DA84213D14FF6F7752A404D892A43D4
:1005A0004FF6FB752A408D882A4347F6FF652B409E
:1005B00047F6FF552B408D892B43CD892B438380F4
:1005C0000483028470BD0000002C0140003401400F
:1005D0000021018041808180C18001814181818130
:1005E000C181704781867047028802F08F020280C5
:1005F000CA884B881A4303881A4302808A888285F6
:100600000A880285054A904202D0054A904201D1EB
:100610000A7A02860122828270470000002C014083
:100620000034014000BFFEE702E008C8121F08C105
:10063000002AFAD170477047002001E001C1121F63
:10064000002AFBD170470000FFF726FFFFF738FEB6
:1006500018E000200C49087008E00B480078FFF70C
:1006600077FE09480078401C074908700648007862
:100670006428F2DB642403E0A0B2FFF769FE641E85
:10068000002CF9DAE5E7000002000020AC060008C3
:10069000000000200400000028060008B006000842
:1006A00004000020040200003806000800000000DA
:0400000508000131BD
:00000001FF
