:020000040800F2
:10000000000400204701000885030008450300089C
:1000100081030008090200084D06000800000000E6
:100020000000000000000000000000005104000873
:100030000D020008000000000D0400084105000842
:1000400067010008670100086701000867010008F0
:1000500067010008670100086701000867010008E0
:1000600067010008670100086701000867010008D0
:1000700067010008670100086701000867010008C0
:1000800067010008670100086701000867010008B0
:1000900067010008670100086701000867010008A0
:1000A0006701000867010008670100086701000890
:1000B000950500086701000867010008670100084E
:1000C0006701000867010008670100086701000870
:1000D0006701000867010008670100086701000860
:1000E0006701000867010008670100086701000850
:1000F0006701000867010008670100086701000840
:10010000670100086701000867010008670100082F
:10011000670100086701000867010008670100081F
:10012000670100086701000867010008670100080F
:10013000DFF80CD000F01EF80048004771060008F8
:1001400008020020704708488047084981F3088862
:1001500007480047FEE7FEE7FEE7FEE7FEE7FEE7AB
:10016000FEE7FEE7FEE7FEE7450100080802002083
:1001700031010008064C074D06E0E06840F001033D
:1001800094E8070098471034AC42F6D3FFF7D4FF49
:10019000C8060008E80600080EB50121084600F070
:1001A00037F94FF47A70ADF804004720ADF800003D
:1001B00069464FF0804000F02BFA0121880700F0DB
:1001C000FBF901221146900700F019FA0121880776
:1001D00000F0F8F90021012000F01AF90EBD08B571
:1001E0004FF4E06000F008F91C208DF800000020BA
:1001F0008DF8010003208DF8020001208DF8030026
:10020000684600F0C1F808BD00BFFEE770472DE961
:10021000F04102460025002600200023002400278C
:1002200091F803C00CF00F0591F803C00CF0100C0E
:10023000BCF1000F03D091F802C04CEA050591F81B
:1002400000C0BCF1000F31D0146800202BE04FF04B
:10025000010C0CFA00F3B1F800C00CEA03069E4250
:1002600020D183004FF00F0C0CFA03F7BC4305FAC2
:1002700003FC4CEA040491F803C0BCF1280F06D13A
:100280004FF0010C0CFA00FCC2F814C00AE091F81F
:1002900003C0BCF1480F05D14FF0010C0CFA00FC73
:1002A000C2F810C0401C0828D1D31460B1F800C0B7
:1002B000BCF1FF0F34DD546800202EE000F1080C83
:1002C0004FF0010808FA0CF3B1F800C00CEA03067D
:1002D0009E4221D183004FF00F0C0CFA03F7BC4370
:1002E00005FA03FC4CEA040491F803C0BCF1280FA2
:1002F00005D100F1080C08FA0CF8C2F8148091F846
:1003000003C0BCF1480F07D100F1080C4FF0010801
:1003100008FA0CF8C2F81080401C0828CED35460AC
:10032000BDE8F08102460020D3680B400BB10120EC
:1003300000E000207047016170470AB1016100E0F0
:100340004161704700BFFEE708B50121102000F0B1
:100350006FF84FF40050ADF8000010208DF8030046
:1003600003208DF8020069460448FFF750FF4FF460
:1003700000510248FFF7DFFF08BD000000100140F8
:1003800000BFFEE77047000070B5002100230F2278
:10039000C47804B3154C246804F4E064C4F5E06444
:1003A000210AC1F10403CA40447804FA03F18478B5
:1003B0001440214309010E4C0678A155047804F03D
:1003C0001F050124AC4005786D11AD0005F1E02555
:1003D000C5F8004109E0047804F01F050124AC4091
:1003E000044D0678761145F8264070BD0CED00E00E
:1003F00000E400E080E100E002490143024A1160AC
:10040000704700000000FA050CED00E070470000A6
:1004100029B1064AD2690243044BDA6104E0034A77
:10042000D2698243014BDA6170470000001002403C
:1004300029B1064A92690243044B9A6104E0034AD7
:1004400092698243014B9A6170470000001002409C
:10045000704710B500F002F810BD00000CB5002088
:10046000019000903448006840F4803032490860C0
:1004700000BF3148006800F4003000900198401C33
:100480000190009818B90198B0F5A06FF1D12A48F1
:10049000006800F4003010B10120009001E000205D
:1004A00000900098012844D12448006840F01000D2
:1004B000224908600846006820F0030008600846EA
:1004C000006840F0020008601B4840681A49486014
:1004D0000846406848600846406840F480604860CC
:1004E0000846406820F47C1048600846406840F4A4
:1004F000E81048600846006840F08070086000BF5F
:100500000D48006800F000700028F9D00A484068E3
:1005100020F00300084948600846406840F00200A7
:10052000486000BF0448406800F00C000828F9D17A
:1005300001E000BFFEE70CBD0010024000200240B9
:100540007047000010B51048006840F001000E49E7
:100550000860084640680D4908400B494860084655
:1005600000680B490840084908600846006820F404
:10057000802008600846406820F4FE0048600020A3
:100580008860FFF766FF10BD001002400000FFF812
:10059000FFFFF6FE10B50121880700F01FF840B1FB
:1005A00004480088401C034908800121880700F0A6
:1005B00006F810BD00000020CA4302827047CA43FB
:1005C0000282704721B1028842F00102028004E0F9
:1005D000028840F2FE331A400280704730B502466E
:1005E000002000230024158A05EA0103958905EA05
:1005F000010413B10CB1012000E0002030BD1AB19C
:1006000083890B43838102E083898B438381704715
:10061000028802F08F020280CA884B881A4303883E
:100620001A4302808A8882850A880285054A904298
:1006300002D0054A904201D10A7A028601228282C2
:1006400070470000002C01400034014000BFFEE76D
:1006500002E008C8121F08C1002AFAD1704770478B
:10066000002001E001C1121F002AFBD170470000E9
:10067000FFF768FFFFF768FEFFF78EFDFFF7AFFD9E
:1006800001210846FFF7C4FE01218807FFF79AFF02
:1006900015E00B480088B0F57A7F10D1002008499A
:1006A00008804FF400510748FFF73CFEC0F10100FD
:1006B000C4B222464FF400510248FFF73EFEE8E77D
:1006C0000000002000100140E806000800000020A3
:1006D0000400000050060008EC060008040000209A
:0C06E0000402000060060008000000009A
:0400000508000131BD
:00000001FF
