:020000040800F2
:1000000000040020470100081F040008170400082E
:100010001B0400089901000889090008000000007D
:10002000000000000000000000000000BD05000806
:10003000BB02000800000000A5040008AD0600088F
:1000400067010008670100086701000867010008F0
:1000500067010008670100086701000867010008E0
:1000600067010008670100086701000867010008D0
:1000700067010008670100086701000867010008C0
:1000800067010008670100086701000867010008B0
:1000900067010008670100086701000867010008A0
:1000A0006701000867010008670100086701000890
:1000B0006701000867010008670100086701000880
:1000C0006701000867010008670100086701000870
:1000D00067010008010700086701000867010008C0
:1000E0006701000867010008670100086701000850
:1000F0006701000867010008670100086701000840
:10010000670100086701000867010008670100082F
:10011000670100086701000867010008670100081F
:10012000670100086701000867010008670100080F
:10013000DFF80CD000F01EF800480047AB090008BB
:10014000180A0020704708488047084981F308884A
:1001500007480047FEE7FEE7FEE7FEE7FEE7FEE7AB
:10016000FEE7FEE7FEE7FEE745010008180A00206B
:1001700031010008064C074D06E0E06840F001033D
:1001800094E8070098471034AC42F6D3FFF7D4FF49
:10019000C0090008E009000800BFFEE700B58BB009
:1001A0000121084600F080F94FF480700390002090
:1001B00002900A901248019000200790802005903C
:1001C000002008900F4800900020069004904FF403
:1001D0000050099069460C4800F051F801210A4886
:1001E00000F03EF8012280210648001F00F04CFB81
:1001F000012240210348001F00F046FB0BB000BD68
:1002000018000020043801405800024030B58BB07F
:1002100005460C460121084600F046F90E480090BC
:1002200001951020029003940020049006908020F5
:1002300005900020079008904FF40050099000208E
:100240000A906946054800F01AF80121034800F0B9
:1002500007F80BB030BD00000438014044000240F4
:1002600021B1026842F00102026003E0026822F05C
:100270000102026070470146486880B2704710B5BD
:100280000022026847F6F0739A430C6A8B68234396
:100290000C6923434C6923438C692343CC69234372
:1002A0004C6A23438C6A23431A430260CB68436041
:1002B0000B6883604B68C36010BD704708B50121AF
:1002C00044F2040000F000F94FF40070ADF80000B3
:1002D00018208DF8030003208DF8020069460748B6
:1002E00000F00EF84FF48060ADF8000004208DF8A7
:1002F00003006946014800F003F808BD000801400A
:100300002DE9F041024600250026002000230024AC
:10031000002791F803C00CF00F0591F803C00CF012
:10032000100CBCF1000F03D091F802C04CEA050597
:1003300091F800C0BCF1000F31D0146800202BE010
:100340004FF0010C0CFA00F3B1F800C00CEA030600
:100350009E4220D183004FF00F0C0CFA03F7BC43F0
:1003600005FA03FC4CEA040491F803C0BCF1280F21
:1003700006D14FF0010C0CFA00FCC2F814C00AE0E0
:1003800091F803C0BCF1480F05D14FF0010C0CFAF5
:1003900000FCC2F810C0401C0828D1D31460B1F88A
:1003A00000C0BCF1FF0F34DD546800202EE000F1E6
:1003B000080C4FF0010808FA0CF3B1F800C00CEA81
:1003C00003069E4221D183004FF00F0C0CFA03F775
:1003D000BC4305FA03FC4CEA040491F803C0BCF1E9
:1003E000280F05D100F1080C08FA0CF8C2F81480A7
:1003F00091F803C0BCF1480F07D100F1080C4FF091
:10040000010808FA0CF8C2F81080401C0828CED366
:100410005460BDE8F08100BFFEE700BFFEE7704713
:1004200070B5002100230F22C47804B3154C246852
:1004300004F4E064C4F5E064210AC1F10403CA4095
:10044000447804FA03F184781440214309010E4CE6
:100450000678A155047804F01F050124AC40057806
:100460006D11AD0005F1E025C5F8004109E0047803
:1004700004F01F050124AC40044D0678761145F8C0
:10048000264070BD0CED00E000E400E080E100E0FB
:1004900002490143024A1160704700000000FA055A
:1004A0000CED00E07047000029B1064A5269024392
:1004B000044B5A6104E0034A52698243014B5A617A
:1004C000704700000010024029B1064A92690243B9
:1004D000044B9A6104E0034A92698243014B9A619A
:1004E000704700000010024030B5002100220024B7
:1004F00000232D4D6D6805F00C0121B1042905D0B4
:10050000082923D105E0294D056022E0274D05602B
:100510001FE0254D6D6805F47012022505EB92422F
:10052000214D6D6805F480341CB9214D554305609B
:100530000BE01D4D6D6805F400351DB11C4D554394
:10054000056002E0194D5543056002E0174D056056
:1005500000BF00BF144D6D6805F0F0010909154D8D
:100560006B5C0568DD4045600F4D6D6805F4E0612A
:10057000090A104D6B5C4568DD4085600A4D6D6869
:1005800005F46051C90A0B4D6B5C4568DD40C560E0
:10059000054D6D6805F44041890B074D6B5CC568DE
:1005A000B5FBF3F5056130BD0010024000127A0082
:1005B00000093D000100002011000020704710B527
:1005C00000F002F810BD00000CB500200190009072
:1005D0003448006840F480303249086000BF314838
:1005E000006800F4003000900198401C01900098D1
:1005F00018B90198B0F5A06FF1D12A48006800F44D
:10060000003010B10120009001E00020009000981F
:10061000012844D12448006840F0100022490860B5
:100620000846006820F0030008600846006840F0B3
:10063000020008601B4840681A4948600846406844
:1006400048600846406840F480604860084640685A
:1006500020F47C1048600846406840F4E810486088
:100660000846006840F08070086000BF0D480068D0
:1006700000F000700028F9D00A48406820F003001C
:10068000084948600846406840F00200486000BFE2
:100690000448406800F00C000828F9D101E000BFD0
:1006A000FEE70CBD00100240002002407047000031
:1006B00010B51048006840F001000E490860084677
:1006C00040680D4908400B494860084600680B49DE
:1006D0000840084908600846006820F48020086047
:1006E0000846406820F4FE00486000208860FFF75C
:1006F00066FF10BD001002400000FFF8FFFFF6FE8D
:1007000010B58CB01021364800F0C7F8012864D12C
:100710003448FFF7B0FDC0F5807400213148FFF781
:100720009FFD3148007838B321463048FFF76EFD11
:10073000012280212A4800F0A7F84FF4807004902D
:10074000002003900B902A480290002008908020FF
:100750000690002009902248001D0190002007907B
:1007600005904FF400500A9001A91E48FFF787FD3D
:1007700000201D49087027E021461D48FFF746FD6F
:1007800001228021164800F07FF84FF48070049019
:10079000002003900B9015480290002008908020C4
:1007A0000690002009900E48001D0190002007903F
:1007B00005904FF400500A9001A90A48FFF75FFD29
:1007C00001200949087000BF01210648FFF748FDD4
:1007D0001021034800F00EF800BF0CB010BD00005F
:1007E000003801405800024000000020180000209E
:1007F00018040020CA430280704721B1828942F464
:100800000052828104E082894DF6FF731A40828192
:100810007047000000B585B0FFF750FD4FF4E130A0
:1008200001900020ADF810000C20ADF80E00002063
:10083000ADF80C00ADF80A00ADF8080001A91148A8
:1008400000F054F84FF4C060FFF722FE25208DF829
:10085000000001208DF8010000208DF80200012029
:100860008DF803006846FFF7DBFD012240F22441CA
:10087000044800F01BF801210248FFF7BEFF05B055
:1008800000BD0000003801401AB1838A0B43838207
:1008900002E0838A8B4383827047024600201388DC
:1008A0000B400BB1012000E000207047F0B503467B
:1008B00000240026002500201846C1F3421401F050
:1008C0001F06012707FA06F5012C01D10C3004E0C0
:1008D000022C01D1103000E014301AB107682F4308
:1008E000076002E00768AF430760F0BD2DE9F047FD
:1008F00086B005460E460024A24600BF00BF002772
:100900002F462C8A4CF6FF700440F08804432C825A
:10091000AC894EF6F3100440B088318908437189E0
:1009200008430443AC81AC8A4FF6FF400440B089D1
:100930000443AC8201A8FFF7D7FD1248874202D1D9
:10094000DDF810A001E0DDF80CA00AEBCA0000EB16
:100950000A1031688900B0FBF1F86420B8FBF0F0B0
:1009600004012009642101FB1089322000EB0910E9
:10097000B0FBF1F000F00F0004432C8106B0BDE89D
:10098000F08700000038014000BFFEE702E008C821
:10099000121F08C1002AFAD170477047002001E0F9
:1009A00001C1121F002AFBD17047FFF781FEFFF73C
:1009B00085FCFFF72FFFFFF7F1FB00BFFEE700000C
:1009C000E009000800000020180000008C09000861
:1009D000F809000818000020000A00009C0900081F
:1009E00001000000000102030401020304060708DD
:0809F0000902040608000000E2
:0400000508000131BD
:00000001FF
