:020000040800F2
:1000000000040020470100085D070008A106000861
:1000100059070008990100082B0C00080000000097
:10002000000000000000000000000000FD080008C3
:100030008905000800000000E5070008ED09000838
:1000400067010008670100086701000867010008F0
:1000500067010008670100086701000867010008E0
:1000600067010008670100086701000867010008D0
:1000700067010008670100089D010008D50100081C
:1000800067010008670100086701000867010008B0
:1000900067010008670100086701000867010008A0
:1000A0006701000867010008670100086701000890
:1000B0006701000867010008670100086701000880
:1000C0006701000867010008670100086701000870
:1000D00067010008410A000867010008670100087D
:1000E0006701000867010008670100086701000850
:1000F0006701000867010008670100086701000840
:10010000670100086701000867010008670100082F
:10011000670100086701000867010008670100081F
:10012000670100086701000867010008670100080F
:10013000DFF80CD000F01EF8004800474D0C000816
:1001400018080020704708488047084981F308884C
:1001500007480047FEE7FEE7FEE7FEE7FEE7FEE7AB
:10016000FEE7FEE7FEE7FEE745010008180800206D
:1001700031010008064C074D06E0E06840F001033D
:1001800094E8070098471034AC42F6D3FFF7D4FF49
:10019000640C0008840C000800BFFEE710B54FF4A3
:1001A000005000F09BF970B14FF4005000F0DAF805
:1001B0004021054800F088FC0021044800F0E0F8E8
:1001C00000200349087010BD00380140440002407F
:1001D0000100002010B54FF4003000F07FF968B343
:1001E0004FF4003000F0BEF84021154800F06CFCE0
:1001F0000021144800F0C4F81348007840B1134CB3
:10020000134810495839486600200F49087007E024
:100210000F4C0E480B495839486601200A490870AE
:100220004FF4007007495839C8650121054800F0AE
:10023000A7F84FF40071204600F08EF910BD0000C1
:10024000003801405800024000000020180400203F
:100250001802002000B58DB00121084600F0C4FA54
:100260003C4800F099F83C4802903C48039000203C
:1002700004904FF4007005900020069080200790B5
:100280000020089009900A904FF400500B90002035
:100290000C9002A92F4800F040F92E48143800F0C5
:1002A0007BF82D4802902E480390102004904001C6
:1002B000059000200690802007900020089009906B
:1002C0000A904FF400500B9000200C9002A9214896
:1002D000143800F022F90F208DF8040003208DF867
:1002E000050000208DF8060001208DF8070001A808
:1002F00000F036FA0E208DF8040003208DF805007A
:1003000001208DF806008DF8070001A800F028FAFA
:10031000012202210F4800F0F7F8012202210D48C6
:10032000143800F0F1F801210A4800F029F8002102
:100330000848143800F024F8012280210648001FE4
:1003400000F0D1FB012240210348001F00F0CBFB4D
:100350000DB000BD580002400438014018020020D2
:100360001800002000F0805111B10349086001E03D
:100370000249486070470000040402400000024047
:1003800021B1026842F00102026003E0026822F03B
:100390000102026070470000016821F00101016064
:1003A0000021016041608160C160484A811A904229
:1003B0005BD012DC464AA0EB020190423AD007DC47
:1003C00044490144D9B1142922D028297AD128E0FE
:1003D000142938D0282975D13EE0B1F56C7F5BD067
:1003E00006DCB1F5627F49D0B1F5677F6AD14CE098
:1003F000B1F5717F57D0B1F5767F63D15BE03449B9
:100400004439496841F00F01314A443A51605AE099
:100410002F494439496841F0F0012D4A443A51606E
:1004200051E02B494439496841F47061284A443A03
:10043000516048E026494439496841F47041244AF2
:10044000443A51603FE022494439496841F47021FF
:100450001F4A443A516036E01D494439496841F425
:1004600070011B4A443A51602DE0194944394968EA
:1004700041F07061164A443A516024E01649096817
:1004800041F00F01144A11601DE01349096841F061
:10049000F001114A116016E00F49096841F47061DA
:1004A0000D4A11600FE00C49096841F470410A4A95
:1004B000116008E006E00849096841F47021064A25
:1004C000116000E000BF00BF7047000080000240E4
:1004D00044000240F8FFFDBF040402400146002032
:1004E000002201F0805313B1054B1A6801E0054B5F
:1004F0001A6802EA01030BB1012000E000207047F6
:1005000000040240000002401AB103680B4303607C
:1005100002E003688B430360704710B50022026855
:1005200047F6F0739A430C6A8B6823430C692343A4
:100530004C6923438C692343CC6923434C6A23438E
:100540008C6A23431A430260CB6843600B68836064
:100550004B68C36010BD000070B505460C4600BF77
:10056000074800780028FBD101200549087005489C
:1005700005658464012103484430FFF701FF70BD25
:10058000010000200000024070472DE9F0410246C2
:1005900000250026002000230024002791F803C036
:1005A0000CF00F0591F803C00CF0100CBCF1000F1B
:1005B00003D091F802C04CEA050591F800C0BCF1E7
:1005C000000F31D0146800202BE04FF0010C0CFA22
:1005D00000F3B1F800C00CEA03069E4220D183006C
:1005E0004FF00F0C0CFA03F7BC4305FA03FC4CEA7E
:1005F000040491F803C0BCF1280F06D14FF0010CA0
:100600000CFA00FCC2F814C00AE091F803C0BCF177
:10061000480F05D14FF0010C0CFA00FCC2F810C0D5
:10062000401C0828D1D31460B1F800C0BCF1FF0F02
:1006300034DD546800202EE000F1080C4FF0010872
:1006400008FA0CF3B1F800C00CEA03069E4221D16F
:1006500083004FF00F0C0CFA03F7BC4305FA03FCC0
:100660004CEA040491F803C0BCF1280F05D100F155
:10067000080C08FA0CF8C2F8148091F803C0BCF119
:10068000480F07D100F1080C4FF0010808FA0CF8E8
:10069000C2F81080401C0828CED35460BDE8F08119
:1006A00000BFFEE710B586B004460121042000F02B
:1006B000ABF80121880300F0A7F84FF40070ADF803
:1006C000140018208DF8170003208DF8160005A9D6
:1006D0001F48FFF75AFF4FF48060ADF81400042064
:1006E0008DF8170005A91A48FFF74FFF0194002065
:1006F000ADF80800ADF80A00ADF80C00ADF8100038
:100700000C20ADF80E0001A9124800F03BFA0122BE
:1007100040F224410F4800F015FA40210D4800F046
:10072000D3F901210B4800F0D2F925208DF8000003
:1007300008208DF8010001208DF802008DF80300DB
:10074000684600F00DF8FFF785FD06B010BD00000B
:10075000000801400038014000BFFEE7704700007C
:1007600070B5002100230F22C47804B3154C24680F
:1007700004F4E064C4F5E064210AC1F10403CA4052
:10078000447804FA03F184781440214309010E4CA3
:100790000678A155047804F01F050124AC400578C3
:1007A0006D11AD0005F1E025C5F8004109E00478C0
:1007B00004F01F050124AC40044D0678761145F87D
:1007C000264070BD0CED00E000E400E080E100E0B8
:1007D00002490143024A1160704700000000FA0517
:1007E0000CED00E07047000029B1064A526902434F
:1007F000044B5A6104E0034A52698243014B5A6137
:10080000704700000010024029B1064A9269024375
:10081000044B9A6104E0034A92698243014B9A6156
:10082000704700000010024030B500210022002473
:1008300000232D4D6D6805F00C0121B1042905D070
:10084000082923D105E0294D056022E0274D0560E8
:100850001FE0254D6D6805F47012022505EB9242EC
:10086000214D6D6805F480341CB9214D5543056058
:100870000BE01D4D6D6805F400351DB11C4D554351
:10088000056002E0194D5543056002E0174D056013
:1008900000BF00BF144D6D6805F0F0010909154D4A
:1008A0006B5C0568DD4045600F4D6D6805F4E061E7
:1008B000090A104D6B5C4568DD4085600A4D6D6826
:1008C00005F46051C90A0B4D6B5C4568DD40C5609D
:1008D000054D6D6805F44041890B074D6B5CC5689B
:1008E000B5FBF3F5056130BD0010024000127A003F
:1008F00000093D000300002013000020704710B5E0
:1009000000F002F810BD00000CB50020019000902E
:100910003448006840F480303249086000BF3148F4
:10092000006800F4003000900198401C019000988D
:1009300018B90198B0F5A06FF1D12A48006800F409
:10094000003010B10120009001E0002000900098DC
:10095000012844D12448006840F010002249086072
:100960000846006820F0030008600846006840F070
:10097000020008601B4840681A4948600846406801
:1009800048600846406840F4806048600846406817
:1009900020F47C1048600846406840F4E810486045
:1009A0000846006840F08070086000BF0D4800688D
:1009B00000F000700028F9D00A48406820F00300D9
:1009C000084948600846406840F00200486000BF9F
:1009D0000448406800F00C000828F9D101E000BF8D
:1009E000FEE70CBD001002400020024070470000EE
:1009F00010B51048006840F001000E490860084634
:100A000040680D4908400B494860084600680B499A
:100A10000840084908600846006820F48020086003
:100A20000846406820F4FE00486000208860FFF718
:100A300066FF10BD001002400000FFF8FFFFF6FE49
:100A400070B5002540F224411A4800F055F880B3F3
:100A5000184800F0E5F84021164800F035F800216C
:100A60001548FFF78DFC14485838C06D4042C5B298
:100A70001248007840B1124C12480F495839486664
:100A800000200E49087007E00E4C0D480A495839FD
:100A900048660120094908704FF40070064958392A
:100AA000C86501210448FFF76BFC29462046FFF783
:100AB00053FD70BD00380140580002400000002086
:100AC0001804002018020020CA430280704721B198
:100AD000828942F40052828104E082894DF6FF73DC
:100AE0001A40828170471AB1838A0B43838202E0E5
:100AF000838A8B438382704770B502460B4600247D
:100B0000002100250020C3F3421503F01F01012638
:100B100006FA01F1012D02D19689314006E0022D3D
:100B200002D1168A314001E0968A31401C1201261A
:100B300006FA04F41688344011B10CB1012000E02B
:100B4000002070BDF0B503460024002600250020DB
:100B50001846C1F3421401F01F06012707FA06F5F3
:100B6000012C01D10C3004E0022C01D1103000E046
:100B700014301AB107682F43076002E00768AF43DB
:100B80000760F0BD2DE9F04786B005460E4600240B
:100B9000A24600BF00BF00272F462C8A4CF6FF70EC
:100BA0000440F08804432C82AC894EF6F3100440D4
:100BB000B08831890843718908430443AC81AC8A09
:100BC0004FF6FF400440B0890443AC8201A8FFF710
:100BD0002BFE1248874202D1DDF810A001E0DDF8BB
:100BE0000CA00AEBCA0000EB0A1031688900B0FBC8
:100BF000F1F86420B8FBF0F004012009642101FB46
:100C00001089322000EB0910B0FBF1F000F00F006A
:100C100004432C8106B0BDE8F08700000038014095
:100C200001468888C0F30800704700BFFEE702E075
:100C300008C8121F08C1002AFAD170477047002067
:100C400001E001C1121F002AFBD17047FFF7D0FE5F
:100C50004FF44070FFF7BCFD4FF4E130FFF722FD89
:100C600000BFFEE7840C0008000000201800000010
:100C70002E0C00089C0C0008180000200008000042
:100C80003E0C000800000000000000010203040107
:0C0C90000203040607080902040608001D
:0400000508000131BD
:00000001FF
