:020000040800F2
:10000000000400204701000889030008DD02000801
:100010008503000899010008D507000800000000CA
:10002000000000000000000000000000F1040008D3
:100030009D010008000000008B0300083506000841
:1000400067010008670100086701000867010008F0
:1000500067010008670100086701000867010008E0
:1000600067010008670100086701000867010008D0
:1000700067010008670100086701000867010008C0
:1000800067010008670100086701000867010008B0
:1000900067010008670100086701000867010008A0
:1000A0006701000867010008670100086701000890
:1000B0006701000867010008670100086701000880
:1000C0006701000867010008670100086701000870
:1000D0006701000867010008670100086701000860
:1000E0006701000867010008670100086701000850
:1000F0006701000867010008670100086701000840
:10010000670100086701000867010008670100082F
:10011000670100086701000867010008670100081F
:10012000670100086701000867010008670100080F
:10013000DFF80CD000F01EF800480047A1090008C5
:1001400018020020704708488047084981F3088852
:1001500007480047FEE7FEE7FEE7FEE7FEE7FEE7AB
:10016000FEE7FEE7FEE7FEE7450100081802002073
:1001700031010008064C074D06E0E06840F001033D
:1001800094E8070098471034AC42F6D3FFF7D4FF49
:10019000640A0008840A000800BFFEE7704701B542
:1001A00002E00098401E009000980028F9D108BD98
:1001B0002DE9F041024600250026002000230024FE
:1001C000002791F803C00CF00F0591F803C00CF064
:1001D000100CBCF1000F03D091F802C04CEA0505E9
:1001E00091F800C0BCF1000F31D0146800202BE062
:1001F0004FF0010C0CFA00F3B1F800C00CEA030652
:100200009E4220D183004FF00F0C0CFA03F7BC4341
:1002100005FA03FC4CEA040491F803C0BCF1280F72
:1002200006D14FF0010C0CFA00FCC2F814C00AE031
:1002300091F803C0BCF1480F05D14FF0010C0CFA46
:1002400000FCC2F810C0401C0828D1D31460B1F8DB
:1002500000C0BCF1FF0F34DD546800202EE000F137
:10026000080C4FF0010808FA0CF3B1F800C00CEAD2
:1002700003069E4221D183004FF00F0C0CFA03F7C6
:10028000BC4305FA03FC4CEA040491F803C0BCF13A
:10029000280F05D100F1080C08FA0CF8C2F81480F8
:1002A00091F803C0BCF1480F07D100F1080C4FF0E2
:1002B000010808FA0CF8C2F81080401C0828CED3B8
:1002C0005460BDE8F0810246002093680B400BB1FA
:1002D000012000E0002070470161704700BFFEE789
:1002E00008B50121042000F061F80121082000F088
:1002F0005DF80120ADF800008DF8020048208DF86F
:10030000030069460148FFF753FF08BD000801409C
:1003100070B504460D4629462046FFF7D4FF98B92C
:100320004CF25030FFF73BFF29462046FFF7CBFF4A
:1003300040B900BF29462046FFF7C5FF0028F9D085
:10034000002070BD0120FCE70120FAE708B501217B
:10035000102000F02BF84FF40050ADF800001020F2
:100360008DF8030003208DF8020069460448FFF76A
:100370001FFF4FF400510248FFF7AEFF08BD000019
:100380000010014000BFFEE77047704729B1064AE0
:10039000D2690243044BDA6104E0034AD269824322
:1003A000014BDA61704700000010024029B1064A93
:1003B00092690243044B9A6104E0034A92698243C2
:1003C000014B9A6170470000001002400348406AE8
:1003D00040F0807001494862704700000010024000
:1003E00030B500210022002400232D4D6D6805F05A
:1003F0000C0121B1042905D0082923D105E0294D9C
:10040000056022E0274D05601FE0254D6D6805F46D
:100410007012022505EB9242214D6D6805F480347F
:100420001CB9214D554305600BE01D4D6D6805F469
:1004300000351DB11C4D5543056002E0194D554373
:10044000056002E0174D056000BF00BF144D6D68E8
:1004500005F0F0010909154D6B5C0568DD4045604C
:100460000F4D6D6805F4E061090A104D6B5C45683D
:10047000DD4085600A4D6D6805F46051C90A0B4D79
:100480006B5C4568DD40C560054D6D6805F4404115
:10049000890B074D6B5CC568B5FBF3F5056130BD95
:1004A0000010024000127A0000093D000000002008
:1004B0001000002010B501460022002300204A1140
:1004C000012A02D1094C236806E0022A02D1074C16
:1004D000236A01E0054C636A01F01F020124944085
:1004E0001C400CB1012000E0002010BD00100240B3
:1004F000704710B500F002F810BD00000CB50020E8
:10050000019000903448006840F48030324908601F
:1005100000BF3148006800F4003000900198401C92
:100520000190009818B90198B0F5A06FF1D12A4850
:10053000006800F4003010B10120009001E00020BC
:1005400000900098012844D12448006840F0100031
:10055000224908600846006820F003000860084649
:10056000006840F0020008601B4840681A49486073
:100570000846406848600846406840F4806048602B
:100580000846406820F47C1048600846406840F403
:10059000E81048600846006840F08070086000BFBE
:1005A0000D48006800F000700028F9D00A48406843
:1005B00020F00300084948600846406840F0020007
:1005C000486000BF0448406800F00C000828F9D1DA
:1005D00001E000BFFEE70CBD001002400020024019
:1005E00030B50146B1F1807F01D3012030BD21F04B
:1005F0007F40401E4FF0E022506150170F2200282C
:1006000007DA13071D0E094B00F00F04241F1D55B8
:1006100003E013071C0E064B1C5400BF00204FF0D4
:10062000E0229061072010610020DFE718ED00E074
:1006300000E400E07047000010B51048006840F08A
:1006400001000E490860084640680D4908400B4902
:100650004860084600680B49084008490860084699
:10066000006820F4802008600846406820F4FE00FE
:10067000486000208860FFF73CFF10BD001002407A
:100680000000FFF8FFFFF6FE00B585B0012144F23F
:100690000400FFF78BFE4FF40070ADF81000182037
:1006A0008DF8130003208DF8120004A91348FFF7FA
:1006B0007FFD4FF48060ADF8100004208DF813002A
:1006C00004A90E48FFF774FD4FF4E13000900020BC
:1006D000ADF80400ADF80600ADF80800ADF80C0068
:1006E0000C20ADF80A006946054800F021F8012108
:1006F000034800F007F805B000BD00000008014005
:100700000038014021B1828942F40052828104E024
:1007100082894DF6FF731A4082817047024600209D
:1007200013880B400BB1012000E00020704700004F
:100730002DE9F04786B005460E460024A24600BFCC
:1007400000BF00272F462C8A4CF6FF700440F0882B
:1007500004432C82AC894EF6F3100440B0883189F2
:100760000843718908430443AC81AC8A4FF6FF40CB
:100770000440B0890443AC8201A8FFF731FE12485F
:10078000874202D1DDF810A001E0DDF80CA00AEBF1
:10079000CA0000EB0A1031688900B0FBF1F8642050
:1007A000B8FBF0F004012009642101FB108932201C
:1007B00000EB0910B0FBF1F000F00F0004432C81B6
:1007C00006B0BDE8F087000000380140C1F3080220
:1007D0008280704700BFFEE740F08001014A11604F
:1007E00070470000002C004000F07F01014A1160BA
:1007F00070470000002C00400021044A126822F4D7
:10080000C0710143014A116070470000042C004090
:100810000021054A126822F07F0100F07F02114397
:10082000014A116070470000042C00400FB4054BD2
:1008300010B503A9044A029800F017F810BC5DF83F
:1008400014FB00007D0900081400002002E008C825
:10085000121F08C1002AFAD170477047002001E03A
:1008600001C1121F002AFBD170472DE9F84F9946AC
:10087000924688460546002706E025280AD05146BC
:100880004A4690476D1C7F1C28780028F5D13846D1
:10089000BDE8F88F002315F8011F18462E2915D141
:1008A00015F8011F04232A290DD06FF02F02297893
:1008B000A1F13004092C09D800EB800002EB4000C4
:1008C00008446D1CF3E758F8040B6D1C2A78002AC5
:1008D000DDD0632A07D0732A0FD0104651464A460E
:1008E00090477F1C2AE018F8042B8DF80020002187
:1008F0008DF801106E46012103E058F8046B4FF0AB
:10090000FF315A074FF0000401D409E0641C84420F
:100910000BDA8C42FADB325D002AF7D105E0641C69
:100920008C42FCDB305D0028F9D1274404E016F846
:10093000010B51464A469047641EF8D26D1CA3E74E
:1009400070B504460C48FFF74BFE002508E000BFD9
:100950004FF0E020006900F480300028F8D06D1CD2
:10096000A542F4D34FF0E020006920F002004FF0E0
:10097000E021086170BD00004019010070B5044617
:100980000D46E1B20548FFF721FF00BF8021034873
:10099000FFF7C4FE0028F9D0204670BD00380140A2
:1009A000FFF74AFEFFF7D2FCFFF79AFCFFF76CFE59
:1009B0001DA0FFF73BFF7E20FFF77CFD012809D13A
:1009C0001DA0FFF733FF4FF4FA70FFF7B9FFFFF7F1
:1009D000FDFC08E01EA0FFF729FF4FF4FA70FFF7B7
:1009E000AFFFFFF7F3FC0121C802FFF7CFFC4FF484
:1009F000C070FFF701FF5520FFF70AFF7620FFF7D1
:100A0000EBFE0FE001211448FFF782FC1420FFF7F2
:100A100097FF12A0FFF70AFF1420FFF791FF76203F
:100A2000FFF7E2FEEEE70000B4B0BFDABFB4C3C523
:100A3000B9B7B2E2CAD40A0057574447525354B820
:100A4000B4CEBBA3ACCEB9B9B7CAA7B0DC200A00FC
:100A5000525354200A0000000008014046656564B6
:100A6000200A0000840A000800000020180000008E
:100A70004C0800089C0A0008180000200002000032
:100A80005C080008000000000102030401020304E6
:0C0A900006070809020406080000000028
:0400000508000131BD
:00000001FF
