:020000040800F2
:100000000004002047010008A50300080B030008B6
:1000100049030008990100080506000800000000D7
:10002000000000000000000000000000BD04000807
:10003000EF01000800000000A7030008BF0400084B
:1000400067010008670100086701000867010008F0
:1000500067010008670100086701000867010008E0
:1000600067010008670100086701000867010008D0
:1000700067010008670100086701000867010008C0
:1000800067010008670100086701000867010008B0
:1000900067010008670100086701000867010008A0
:1000A0006701000867010008670100086701000890
:1000B0006701000867010008670100086701000880
:1000C0006701000867010008670100086701000870
:1000D0006701000867010008670100086701000860
:1000E0006701000867010008670100086701000850
:1000F0006701000867010008670100086701000840
:10010000670100086701000867010008670100082F
:10011000670100086701000867010008670100081F
:10012000670100086701000867010008670100080F
:10013000DFF80CD000F01EF8004800472906000840
:10014000A0150020704708488047084981F30888B7
:1001500007480047FEE7FEE7FEE7FEE7FEE7FEE7AB
:10016000FEE7FEE7FEE7FEE745010008A0150020D8
:1001700031010008064C074D06E0E06840F001033D
:1001800094E8070098471034AC42F6D3FFF7D4FF49
:10019000600600088006000800BFFEE721B1026883
:1001A00042F00102026003E0026822F001020260F4
:1001B000704710B50022026847F6F0739A430C6A44
:1001C0008B6823430C6923434C6923438C69234385
:1001D000CC6923434C6A23438C6A23431A4302604D
:1001E000CB6843600B6883604B68C36010BD704789
:1001F0002DE9F041024600250026002000230024BE
:10020000002791F803C00CF00F0591F803C00CF023
:10021000100CBCF1000F03D091F802C04CEA0505A8
:1002200091F800C0BCF1000F31D0146800202BE021
:100230004FF0010C0CFA00F3B1F800C00CEA030611
:100240009E4220D183004FF00F0C0CFA03F7BC4301
:1002500005FA03FC4CEA040491F803C0BCF1280F32
:1002600006D14FF0010C0CFA00FCC2F814C00AE0F1
:1002700091F803C0BCF1480F05D14FF0010C0CFA06
:1002800000FCC2F810C0401C0828D1D31460B1F89B
:1002900000C0BCF1FF0F34DD546800202EE000F1F7
:1002A000080C4FF0010808FA0CF3B1F800C00CEA92
:1002B00003069E4221D183004FF00F0C0CFA03F786
:1002C000BC4305FA03FC4CEA040491F803C0BCF1FA
:1002D000280F05D100F1080C08FA0CF8C2F81480B8
:1002E00091F803C0BCF1480F07D100F1080C4FF0A2
:1002F000010808FA0CF8C2F81080401C0828CED378
:100300005460BDE8F0810161704700BFFEE7000066
:1003100008B50121102000F057F84FF40050ADF857
:10032000000010208DF8030003208DF802006946BC
:100330000448FFF75DFF4FF400510248FFF7E3FF69
:1003400008BD00000010014000BFFEE700B58BB003
:100350000121084600F028F80F4800900F4801904E
:100360001020029041F28830039000200490069003
:10037000802005900020079008904FF400500990CD
:1003800000200A9069460648FFF713FF0121044840
:10039000FFF704FF0BB000BD04380140140000203B
:1003A000440002407047704729B1064A526902432F
:1003B000044B5A6104E0034A52698243014B5A617B
:1003C000704700000010024029B1064A92690243BA
:1003D000044B9A6104E0034A92698243014B9A619B
:1003E000704700000010024030B5002100220024B8
:1003F00000232D4D6D6805F00C0121B1042905D0B5
:10040000082923D105E0294D056022E0274D05602C
:100410001FE0254D6D6805F47012022505EB924230
:10042000214D6D6805F480341CB9214D554305609C
:100430000BE01D4D6D6805F400351DB11C4D554395
:10044000056002E0194D5543056002E0174D056057
:1004500000BF00BF144D6D6805F0F0010909154D8E
:100460006B5C0568DD4045600F4D6D6805F4E0612B
:10047000090A104D6B5C4568DD4085600A4D6D686A
:1004800005F46051C90A0B4D6B5C4568DD40C560E1
:10049000054D6D6805F44041890B074D6B5CC568DF
:1004A000B5FBF3F5056130BD0010024000127A0083
:1004B00000093D0000000020100000207047704738
:1004C00000B585B0012144F20400FFF77DFF4FF431
:1004D0000070ADF8100018208DF8130003208DF87F
:1004E000120004A91348FFF783FE4FF48060ADF8B3
:1004F000100004208DF8130004A90E48FFF778FEC1
:100500004FF4E13000900020ADF80400ADF8060093
:10051000ADF80800ADF80C000C20ADF80A006946F3
:10052000054800F021F80121034800F007F805B064
:1005300000BD0000000801400038014021B182895F
:1005400042F40052828104E082894DF6FF731A4022
:10055000828170471AB1838A0B43838202E0838AC7
:100560008B438382704700002DE9F04786B0054633
:100570000E460024A24600BF00BF00272F462C8A4B
:100580004CF6FF700440F08804432C82AC894EF690
:10059000F3100440B088318908437189084304434B
:1005A000AC81AC8A4FF6FF400440B0890443AC8272
:1005B00001A8FFF719FF1248874202D1DDF810A009
:1005C00001E0DDF80CA00AEBCA0000EB0A1031686C
:1005D0008900B0FBF1F86420B8FBF0F004012009B9
:1005E000642101FB1089322000EB0910B0FBF1F00F
:1005F00000F00F0004432C8106B0BDE8F087000036
:100600000038014000BFFEE702E008C8121F08C121
:10061000002AFAD170477047002001E001C1121F83
:10062000002AFBD170470000FFF772FEFFF748FF7A
:10063000FFF78CFE002004E05021074A1154411CB2
:1006400088B241F288318842F6DB012280210348DA
:10065000FFF780FF00BFFEE71400002000380140D4
:1006600080060008000000201400000008060008B2
:1006700094060008140000208C15000018060008DD
:100680000000000001020304010203040607080938
:040690000204060852
:0400000508000131BD
:00000001FF
